:020000040800F2
:10000000905D002049010008ED1C0008C51800089B
:1000100000000000000000000000000000000000E0
:10002000000000000000000000000000891F000820
:100030000000000000000000070100088D1F0008FC
:100040005B0100085B0100085B0100085B01000820
:100050005B0100085B0100085B0100085B01000810
:100060005B0100085B0100085B0100085B01000800
:100070005B010008852000085B0100085B010008A7
:10008000952000085B0100085B0100085B01000887
:100090005B0100085B0100085B0100085B010008D0
:1000A0005B010008711D0008811D00086522000821
:1000B0005B010008912200085B01000803488546A7
:1000C00000F08AF800480047C5230008905D002032
:1000D000084B19680868203080F30988022080F3F3
:1000E0001488BFF36F8F3FBCAE4608BC04BC62B639
:1000F0001847000008000020EFF3108072B6704728
:1001000080F310887047EFF309800E4B1A6820388F
:100110001060F0C044464D4656465F46F0C008B5F4
:1001200072B602F0E5FE62B60CBC116808681030C9
:10013000F0C8A046A946B246BB4680F309882038DD
:10014000F0C81847080000200448804704480047CA
:10015000FEE7FEE7FEE7FEE7FEE7FEE729200008F0
:10016000BD00000830B50B460146002020220124C6
:1001700009E00D46D5409D4205D31D469540491BDB
:100180002546954040191546521E002DF1DC30BD24
:1001900003460B439B0703D009E008C9121F08C0A0
:1001A000042AFAD203E00B780370401C491C521E4B
:1001B000F9D27047D2B201E00270401C491EFBD256
:1001C00070470022F6E710B513460A460446194662
:1001D000FFF7F0FF204610BD064C0125064E05E056
:1001E000E36807CC2B430C3C98471034B442F7D358
:1001F000FFF768FF6037000880370008704770B568
:100200000024014620314A78022A03D00421816368
:10021000012416E0026813680E25AB4313600268E0
:1002200013685B085B0013600122056C1346AB404A
:10023000C56B6B604A7000220A70416B002900D0C8
:100240008847204670BD0000F8B5002393E02246A1
:1002500001249C40A44622407ED04C68022C01D050
:10026000122C0CD1DC08A40027183C6A5D07ED0EA7
:100270000F26AE40B4430E69AE4026433E62056889
:100280005E000324B4400F79A543BF07BF0FB740FA
:100290002F4307604D68012D05D0022D03D0112D8D
:1002A00001D0122D0ED18568CF68A543B7402F43EA
:1002B000876047686546AF430D79ED06ED0F9D40B9
:1002C0003D434560C568A5438C68B4402C43C46079
:1002D0004C68E4004ED52B4CA56901263543A56139
:1002E000A4699D0834400094274CAD002F19BC68C8
:1002F0009D072E0F0F25B540AC430925ED06A842FA
:1003000001D1002514E0214DA84201D101250FE0C3
:100310001F4DA84201D102250AE01E4DA84201D17D
:10032000032505E01C4DA84201D1042500E0052568
:10033000B5402543BD60194C25684E689543F603CA
:1003400000D51543256065684E689543B60300D512
:1003500015436560A56800E00CE04E689543F60221
:1003600000D51543A560E5684E689543B60200D5F3
:100370001543E5605B1C0A681446DA4000D066E766
:10038000F8BD0000001002400000014000040048D9
:1003900000080048000C004800100048000401401C
:1003A0000148006870470000000000200248016812
:1003B000491C0160704700000000002010B506488D
:1003C0000168102211430160002000F007F800F0DE
:1003D00041F8002010BD00000020024000B5014699
:1003E00087B000220D2000F057F80D2000F04AF8E9
:1003F00013488269C1140A438261806908400590EC
:1004000004A9684600F092F900F0ACF90D49FFF735
:10041000A9FE0E490C4A0A600D4A401ECA60486097
:10042000002008618860084601F038F8002802D0F2
:10043000012007B000BD054801F08AF8F9E7000087
:100440000010024040420F00002C01402004002018
:10045000E703000008B50A48816901221143816160
:10046000816911400091C26901040A43C261C069F7
:100470000022084003210090481F00F00DF808BD3D
:1004800000100240C106C90E0120884001490860E1
:100490007047000000E100E010B501F02BFC10BD3A
:1004A000F8B504460068434DC00352D5E8690026FC
:1004B000C00007D4E96928040143E961E969014002
:1004C000012600913C480168C90510D401688215D5
:1004D00011430160FFF764FF074604E0FFF760FF88
:1004E000C01B642824D834480068C005F6D5286AA3
:1004F00003273F02384020D06168394081421CD038
:10050000286A2A6AB843012109040A432A622A6A2E
:100510008A432A622862C0070FD0FFF741FF00908C
:1005200008E0FFF73DFF0099411A2448814201D9B4
:100530000320F8BD286A8007F3D5286A6168B843AC
:1005400008432862002E04D0E86901210907884386
:10055000E8612078C00705D0286BA168800880007A
:10056000084328632078800706D5286B03210904F7
:100570008843E168084328632068400306D5286B58
:100580000321890488432169084328632078800671
:1005900005D5286B102188436169084328632088AA
:1005A000400505D5286B40218843A169084328638D
:1005B0000020F8BD001002400070004088130000C9
:1005C00070470000F8B505464E480E460068C00763
:1005D000C00FB0420AD24B48016849084900314374
:1005E00001600068C007C00FB04270D12878464C47
:1005F000800705D56068F0218843A96808436060DA
:100600002878C00753D06868012817D0022818D06E
:10061000032819D021688907002958DA61688908F8
:10062000890001436160FFF7BBFE69680746012945
:1006300013D002291DD0032927D034E02168890373
:10064000EAE721688901E7E7616BC903E4E7FFF79F
:10065000A7FEC11B2D48814223D860680007800F88
:100660000128F4D123E0FFF79BFEC11B27488142FC
:1006700017D860680007800F0228F4D117E0FFF751
:100680008FFEC11B214881420BD860680007800F94
:100690000328F4D10BE0FFF783FEC11B1B48814206
:1006A00001D90320F8BD60680007800FF3D1154819
:1006B0000168C907C90FB1420BD90168490849004F
:1006C000314301600068C007C00FB04201D0012073
:1006D000F8BD2878400706D56068072109028843DD
:1006E000E9680843606000F04DF86168084A09064F
:1006F000090F515CC840074908600020FFF76EFEF3
:100700000020F8BD002002400010024088130000C5
:100710004837000804000020034801680122D20481
:1007200011430160704700000010024010B507221D
:1007300002600A4A53689B079B0F43605368F0248A
:1007400023408360526807231B021A40C26004489A
:100750000068C007C00F086010BD00000010024014
:10076000002002400448054900684968044A4905D8
:10077000490F515CC840704704000020001002403F
:100780005837000870B518A20FCA88B06C460FC45D
:1007900019A30FCB0FC41C494A680C20144604400F
:1007A0001A48042C06D04300194D082C04D00C2CF8
:1007B00018D0284608B070BD9402240F6E46345DF0
:1007C000C96A04AE0907090FD203715C920F022AAD
:1007D00002D0032A04D02846FFF7C4FC6043E9E7AF
:1007E0001846F9E71846E5E7020304050607080975
:1007F0000A0B0C0D0E0F101001020304050607086A
:10080000090A0B0C0D0E0F100010024000366E018D
:1008100000127A0010B5044CA068000603D5FFF75B
:10082000CFFE8020A07210BD00100240FEB504462D
:100830000078F04EF04DC00748D068680007800F80
:1008400001281FD068680007800F022804D168685B
:10085000C003800F022815D06168012919D001203A
:100860008004002901D0052917D02968B1432960E7
:10087000296881432960606800281BD0FFF790FD3C
:10088000074613E02868800320D56068002876D0EA
:100890001CE0286830432860EDE72968014329609F
:1008A000F7E7FFF77DFDC01B642869D8286880033F
:1008B000F7D50BE0FFF774FD074604E0FFF770FD86
:1008C000C01B6428F1D828688003F7D420788007FB
:1008D0003ED568680007800F14D068680007800F55
:1008E000022804D16868C003800F01280AD0E0689C
:1008F000002828681DD0012108432860FFF750FD1B
:1009000007460BE0286880070BD5E068012836D140
:1009100007E0FFF745FDC01B0228C6D828688007FE
:10092000F7D52868F82188432169C9000843286061
:100930000EE0400840002860FFF732FD074604E063
:10094000FFF72EFDC01B0228AFD828688007F7D418
:100950002078000724D5E0690028686A11D00121B9
:1009600008436862FFF71CFD074604E0FFF718FD27
:10097000C01B022899D8686A8007F7D510E036E1D5
:10098000D1E0400840006862FFF70AFD074604E036
:10099000FFF706FDC01B022887D8686A8007F7D4D6
:1009A000207804274007002861DA00200190E869D8
:1009B000C00008D4E969B8060143E961E96901406A
:1009C0000120009101908D480168C90511D401688A
:1009D000821511430160FFF7E3FC009005E0FFF78B
:1009E000DFFC0099401A642897D884480068C00545
:1009F000F5D5A06801280AD0002801D0052811D01B
:100A0000286A400840002862286AB84302E0286A41
:100A1000012108432862A068002812D0FFF7C0FC1B
:100A200000900AE0286A38432862F0E7FFF7B8FC34
:100A30000099411A7248814275D8286A8007F5D515
:100A40000DE0FFF7ADFC009006E0FFF7A9FC009970
:100A5000411A6B48814266D8286A8007F5D401980C
:100A6000002804D0E969012000078143E96120786A
:100A7000C00635D5606901280CD0401D686B24D0B4
:100A800038436863686B400840006863FFF788FC80
:100A9000074622E0686B38436863686B01210843AE
:100AA0006863FFF77DFC074604E0FFF779FCC01B95
:100AB000022838D8686B8007F7D5686BF82188431F
:100AC000A169C900084368630AE0B8436863F4E7B2
:100AD000FFF766FCC01B022825D8686B8007F7D497
:100AE0002078800637D568680007800F032813D068
:100AF00068680007800F022804D16868C003800F6F
:100B0000032809D0206A0028686B16D03043686338
:100B1000FFF746FC06460CE0686BC0031BD5206A55
:100B2000012864D117E05BE0FFF73AFC801B022844
:100B300056D8686BC003F7D50DE0B0436863FFF784
:100B40002FFC064604E0FFF72BFC801B022847D849
:100B5000686BC003F7D4606A002846D0696809074B
:100B6000890F022943D0012636060228286805D0BD
:100B7000B0432860FFF714FC044633E0B04328601C
:100B8000FFF70EFC074604E0FFF70AFCC01B022833
:100B900026D828688001F7D4E86A216B0009000193
:100BA0000843E862A16AE06A084369687B22D203CD
:100BB000914308436860286830432860FFF7F0FBE2
:100BC000044604E0FFF7ECFB001B022808D8286865
:100BD0008001F7D509E0FFF7E3FB001B022801D9EC
:100BE0000320FEBD28688001F5D40020FEBD012051
:100BF000FEBD000000000100001002400070004037
:100C00008813000070B5040003D0607F002802D074
:100C100006E0012070BD00202077204600F04CF84F
:100C2000022060772168CA20486221685320486208
:100C3000204601F081F8FF250426002824D12068F1
:100C400081681C4A11408160216888686268636914
:100C5000104322691A43104388602168E0680861E4
:100C60002068016922891204114301612068C1686A
:100C700080229143C16020688068800608D42046A5
:100C800000F02AF8002803D0206845626677C0E7A4
:100C90002068016C01229204914301642068016C78
:100CA000A269114301642068456201206077002039
:100CB00070BD0000BFFF8FFF00680549884205D165
:100CC0000448016A0122D203114301627047000007
:100CD000002800400010024070B504460068C1685A
:100CE000A0229143C160FFF75BFB7D260546F6001D
:100CF00006E0FFF755FB401BB04201D9032070BD51
:100D00002068C0688006F4D5002070BD70470000E0
:100D1000F8B504460068426881684B0605D4CB07E5
:100D200003D0530601D5E16C04E08B0705D513060B
:100D300003D5216D20468847F8BDFF236133194252
:100D4000FAD09306F8D523464D064033002D09DA34
:100D50005D7F032D3CD0256E042635432566C5688E
:100D6000856800958E060125002E08DA266E2E4332
:100D700026668668009606684027BE430660C8055A
:100D800006D5206E08210843206620688068009000
:100D9000206E0028D0D020684168E026B143416031
:100DA0005D77900718D02068416889088900416004
:100DB000A06D0B4D002803D04563A06DFFF71FFA0F
:100DC000606D0028B8D04563606DFFF718FAF8BD74
:100DD000C16880680090F8BD2046FFF797FFF8BD16
:100DE000911D0008F8B5040007D0002625464035BF
:100DF000A662687F002802D005E00120F8BD2E77AA
:100E0000204600F04BF802236B77206801684022EF
:100E1000914301600721E0680902884201D900225C
:100E200001E0012212030F273F02B84202D088429C
:100E300000D0A662276B002F05D1884201D9236319
:100E400001E001202063A1686068636908432169AB
:100E5000194308430123A1695B0219400843E16972
:100E60000843216A0843A16A084321680860616B4E
:100E7000606AA36908431B0C0427E1683B401943DF
:100E800008432168104348602068C1697A02914391
:100E9000C1612666012068770020F8BDF0B587B0F3
:100EA000044614216846FFF78CF9334A216800256F
:100EB00032480226032491422DD1826981140A43CB
:100EC000826182690A400592426949010A4342618E
:100ED0004069092708400590A020FF060090029570
:100EE00069460196049503943846FFF7ADF9002250
:100EF00003211920FFF7D0FA1920FFF7C3FA402089
:100F00000090012002AA019631C269463846FFF7D7
:100F10009BF907B0F0BD1A4A9142FAD1C26909148F
:100F20000A43C261C2690A400592426909010A4343
:100F300042614069134F0840059008120090052057
:100F4000049001960295039469463846FFF77CF9B0
:100F5000032080030090029569460196049503944E
:100F60003846FFF771F9002203211A20FFF794FA9F
:100F70001A20FFF787FACCE700300140001002404A
:100F80000038004000040048FFB504460E464068A3
:100F9000FF21254600270531403581B0884202D126
:100FA000A06800280CD0287F012815D001202877C0
:100FB000FFF7F6F90090687F01280FD0022789E03B
:100FC0000420687704980090324611462046039B1F
:100FD00000F03EF905B0F0BD0220FBE7002E78D00E
:100FE0000398002875D004206877002020662664C6
:100FF0000399A9800399E980A063A087E087E06452
:10100000206507200121E26800020903824222686C
:10101000536801D98B4300E00B4353600122A16860
:10102000D203914205D121680A6801239B039A43A8
:101030000A6021680A68520603D40A6840231A43EA
:101040000A60E168814218D934E020688168C907E4
:1010500006D0007B3070E888401EE880761C0CE0EB
:101060000498002824D0401C07D0FFF799F90146C6
:101070000098091A049881421AD2E8880028E4D11D
:101080001BE020688168C90706D0C0683080E88806
:10109000401EE880B61C0DE00498002808D0401CD3
:1010A00008D0FFF77DF90099411A0498814201D3D5
:1010B00003270FE0E8880028E3D12046009A04992E
:1010C00000F06FFE002801D020202066206E00284E
:1010D00000D001270120687700202877384679E77B
:1010E000FFB5064604464036307F002781B00D46E6
:1010F000012809D001203077FFF752F90090707F66
:10110000012804D002279DE0022005B0F0BD002D8B
:1011100072D0039800286FD00320707700202066DB
:10112000A5630399A1870399E1872064B080F080CB
:101130002065E0640121A068C903884205D12068C8
:101140000168012292031143016020680168490689
:1011500003D401684022114301600720E1680002C6
:101160008142606823D9002802D0E08F01281AD17B
:1011700021682888C86005E020688168890706D54D
:101180002988C160E08F401EE087AD1C0BE0049809
:1011900000283ED0401C06D0FFF702F90099411A02
:1011A0000498814235D2E08F0028E5D136E000284E
:1011B00002D0E08F01282ED1E08F012803D92168C9
:1011C0002888C8600CE02168287808730FE0206840
:1011D0008168890711D5E18F012906D92988C16065
:1011E000E08F801EE087AD1C15E029780173E08F49
:1011F000401EE0876D1C0EE023E00498002808D014
:10120000401C08D0FFF7CCF80099411A049881429D
:1012100001D3032716E0E08F0028D8D12046009A9A
:10122000049900F0FAFD002801D020202066A06873
:10123000002803D12068C16880680090206E0028D3
:1012400000D00127012070770020307738465CE716
:10125000FFB5044683B00120254640350090287F25
:1012600000270E4601280FD001202877FFF798F8B5
:101270000190687F616801280DD0CA1FFD3A08D12E
:10128000A168002905D102E0022007B0F0BD0428C2
:1012900001D00227FAE0002E7CD005980028FBD070
:1012A00006980028F8D0687F042801D005206877C8
:1012B00000202066059921640699E9800699A98095
:1012C000A6630699E1870699A187E0642065072354
:1012D000E1681B02994202D8E888012806D92068F3
:1012E0004268012109038A43426005E020684168A1
:1012F000012212031143416020680168490603D4AA
:101300000168402211430160E1686068994242D956
:10131000002802D0E08F012835D121683088C860CC
:10132000E08F401EE087B61C2DE0009800280ED00C
:10133000E08F00280BD020688168890707D53188A5
:10134000C160E08F401EE0870020B61C0090E88856
:1013500000280ED020688168C9070AD0C0680599A6
:1013600008800598801C0590E888401EE8800120D0
:1013700000900C98401C06D0FFF712F80199411A12
:101380000C9881426DD2E08F0028CED1E8880028E9
:10139000CBD16EE079E0002802D0E08F012862D145
:1013A000E08F012807D921683088C860E08F801E4F
:1013B000E087B61C57E0216830780873E08F401E44
:1013C000E087761C4FE00098002818D0E08F0028B6
:1013D00015D020688168890711D5E18F012906D9C8
:1013E0003188C160E08F801EE087B61C05E031784F
:1013F0000173E08F401EE087761C00200090E88893
:10140000002824D020688168C90720D0E9880129F4
:1014100012D9C068059908800598801C0590E88855
:10142000801EE880E88801280FD8206841680122E2
:1014300012031143416008E0017B05980170059893
:10144000401C0590E888401EE880012000900C9820
:10145000401C08D0FEF7A4FF0199401A0C9988425D
:1014600001D3032712E0E08F0028ACD1E8880028E0
:10147000A9D12046019A0C9900F0CFFC002801D098
:1014800020202066206E002800D0012701206877E8
:10149000002028773846F8E67047704770B504009A
:1014A00005D025462035687F002802D006E00120BF
:1014B00070BD00202877204600F00AF802206877E7
:1014C000211D206800F0EEFD01206877002070BD2E
:1014D000F0B587B0044614216846FEF772FE19493C
:1014E000206888422CD11848C16902242143C16177
:1014F000C16921400591426961040A434261406922
:101500000025084005901020694631C103200F4F87
:1015100001260390694604963846FEF795FE202082
:10152000694631C16946384604960395FEF78CFE3C
:10153000002203211020FEF7AFFF1020FEF7A2FFCC
:1015400007B0F0BD00040040001002400004004855
:101550000268D36801210B43D360006802680A4324
:10156000026000207047704770B50446006801694A
:101570000025C9438907002915DBC168C9438907CC
:1015800011D4E91E0161012020772068806980075D
:10159000204602D0FFF7E7FF04E000F096F820466F
:1015A00000F094F8257720680169C943490717D4EA
:1015B000C168C943490713D40421C943016102200A
:1015C0002077206880698005800F204602D0FFF7D1
:1015D000CAFF04E000F079F8204600F077F825779C
:1015E00020680169C943090716D4C168C9430907BE
:1015F00012D40821C9430161042020772068C06902
:101600008007204602D0FFF7AEFF04E000F05DF84F
:10161000204600F05BF8257720680169C943C906B8
:1016200017D4C168C943C90613D41021C943016145
:10163000082020772068C0698005800F204602D0EE
:10164000FFF791FF04E000F040F8204600F03EF87C
:10165000257720680169C943C90708D1C168C94312
:10166000C90704D1891E0161204600F031F82068C5
:101670000169C943090609D4C168C943090605D4EB
:101680008021C94301612046FFF706FF20680169F8
:10169000C943490609D4C168C943490605D4402154
:1016A000C9430161204600F01DF820680169C94363
:1016B000890609D4C168C943890605D42021C943D4
:1016C00001612046FFF7E9FE70BD704770470000DA
:1016D00010B500680249884201D1FEF767FE10BDCF
:1016E000002C01407047704770470000F8B5036850
:1016F0000446D869196805072D0F07D1820605D55C
:101700008A0603D5204600F03DFDF8BD9A68002DFD
:1017100064D0D507ED0FFF2621360E402E435DD055
:10172000C60706D0CE0504D501261E62E36E3343FC
:10173000E366870702230426002F06DAD70704D0C2
:1017400027683B62E76E3743E766470706D5D2074F
:1017500004D022681662E26E1A43E266020709D5D7
:1017600020220A402A4305D0236808221A62E36E29
:101770001343E366E26E002AC7D0800604D58806CC
:1017800002D5204600F0FEFCE06E000703D420687E
:10179000806840061CD5204600F0D8FC206881688F
:1017A000490611D58168402291438160606E00280E
:1017B0000AD01A494163606EFEF721FD0028A4D0CB
:1017C000606E416B8847F8BD2046FFF78DFFF8BD7E
:1017D0002046FFF789FF0020E066F8BDC5020DD561
:1017E00052020BD5012000051862202120466030EE
:1017F000417281722046FFF776FFF8BD020605D5DB
:101800000A0603D5204600F0FAFCF8BD4006FCD5D8
:101810004806FAD5204600F0A8FCF8BD392100089A
:10182000F0B5034660339C7A202C44D100290BD0BC
:10183000002A09D0012584682D03AC4206D106692F
:10184000002E03D1CE0701D00120F0BD1E7A012E5B
:1018500031D001261E724165014640310A834A8318
:10186000FF27AC4204D10269002A12D1134A0EE0CC
:101870007F22002C08D001252D07AC420AD1046933
:10188000002C04D03F2202E00469002C01D08A839E
:1018900000E08F830021C16622229A7219720168CA
:1018A0008A6832438A6000680168FF22213211434E
:1018B00001600020F0BD0220F0BD0000FF0100002B
:1018C00070477047FEE7000008B504494A690243C3
:1018D0004A6149690140009108BD000000100240C2
:1018E00010B50479012325490268002C3DD0002A57
:1018F00042D04479002C0FD0012C15D0022C16D0E8
:1019000000238279002A37D0012A18D0022A1FD05A
:10191000032A21D000232FE04C6894434C600268D6
:101920000C6814430C60ECE70C68944301E00C680D
:1019300014430C6002684C6814434C60E1E7026891
:10194000CC689443CC6000688A6802438A6013E0E4
:1019500002688C68944302E002688C6814438C60CF
:101960000068CA680243CA6006E00C6894430C60D1
:1019700000684A6882434A60184610BD000401406E
:10198000F0B500243EE001232A46A3401A4038D097
:101990004F680668134653435D005D19AE435F43CD
:1019A0003E4306604E68012E01D0022E05D18F689D
:1019B00086685F43AE433E4386600F69C668AE43A8
:1019C0001D467D432E43C6604D68022D19D1FF2A66
:1019D0000AD84E69056A534353431A01D21A9543F4
:1019E00073431D4305620CE0130A1A465A435A43D7
:1019F0005A4313019E1A4D69436A6A43B343134322
:101A00004362641C0A681546E240BCD14A68012A58
:101A100001D0022A06D1CB6841682A4691435A4335
:101A2000114341600120F0BDF0B589B0182168462E
:101A3000FEF7C7FB002401200694C0040794FFF7BB
:101A400043FF01208005FFF73FFF01204004FFF71F
:101A50003BFF01208004FFF737FF01200005FFF75F
:101A600033FF804901208862022088620820092112
:101A7000C9068862102088627A4988627A49C00162
:101A8000886140008862774900118862400088625E
:101A900040100921C9068862C0008862400088623F
:101AA00071490820886280208862402088616F49DF
:101AB00003268868F02290432022104388606948FA
:101AC000C0680906674A8843D06010688843106080
:101AD0000120400306900125684605774477857705
:101AE00006A8FFF7FDFE0095039469465D4802963F
:101AF00001950494FFF744FF02270394694659486F
:101B00000097029601950494FFF73AFF082003948A
:101B10006A46049461C209206946C006FFF730FF97
:101B2000102003946A46049461C209206946C006E5
:101B3000FFF726FF102003946A46049461C26946A9
:101B40004848FFF71DFF01946946474800970494F1
:101B5000FFF716FF04200090019469460494424860
:101B6000FFF70EFFE80203946A46049461C26946D7
:101B70003D48FFF705FF402709206946C00600974A
:101B8000029604950194FFF7FBFE280303946A462E
:101B9000049461C269463448FFF7F2FE680300907E
:101BA0006946049501943048FFF7EAFE2802009048
:101BB000029403946946019504942A48FFF7E0FED5
:101BC00068020090029403946946019504942548A4
:101BD000FFF7D6FE2802009009200294039469467C
:101BE00001950494C006FFF7CBFEE802009009209F
:101BF00002940394694601950494C006FFF7C0FE61
:101C000028030090092002940394694601950494E6
:101C1000C006FFF7B5FEE80300900920019469466D
:101C20000494C006FFF7ACFE082003946A460494AF
:101C300061C269460C48FFF7A3FE0294039469460B
:101C40000948009701950494FFF79AFE80200090C0
:101C5000029403946946019504940348FFF790FEAB
:101C600009B0F0BD00080048000400480C00014025
:101C700010B50A48084901607F2282600021416056
:101C80000161FF224161C2608161FEF7BBFF002854
:101C900001D0FEF7B3FA10BD00280040C8000020B4
:101CA00010B511480F490160FF2105314160002145
:101CB0000722816012020161C2604161C16101229B
:101CC000016252024162826181620722C262016343
:101CD00008214163FFF786F8002801D0FEF78EFA4D
:101CE00010BD000000300140E800002010B5FEF7F4
:101CF00091FD10BD8307FF22DB0E9A408907090E74
:101D0000994000280BDA0007000F083883080848BC
:101D10009B001818C36993430B43C3617047830842
:101D200004489B001B1818689043084318607047CC
:101D300000ED00E000E400E070B504460068C16812
:101D4000490613D40021C943C160FEF729FB7D2653
:101D50000546F60006E0FEF723FB401BB04201D922
:101D6000032070BD2068C0684006F4D5002070BD17
:101D700010B50248FEF7CCFF10BD0000E8000020BF
:101D800010B50248FEF7C4FF10BD00004C01002052
:101D900010B5406A002146221152C187FEF7B6FFF6
:101DA00010BDF7B504464068FF26053682B01546DB
:101DB000B0420CD10121A068C903884202D0491168
:101DC000884204D120680168402291430160009557
:101DD000002280212046039B00F090F82027002855
:101DE00013D16068B04216D1A068B902884202D00F
:101DF000491188420FD10321009500224902204653
:101E0000039B00F030F8002805D0206E3843206690
:101E1000032005B0F0BD0020FBE7F8B50F460B46E8
:101E200015460092032104460022C90200F01BF867
:101E30002026002812D13B46002280212046009512
:101E400000F05CF8002809D103213B46002249023A
:101E50002046009500F007F8002803D0206E30439C
:101E600020660320F8BDF8B51D4617460E46044609
:101E70003DE0032149028E4205D1002F03D1017BB1
:101E8000684601700078681C31D0002D05D0FEF73F
:101E900087FA0699401AA84229D320684168E022AF
:101EA000914341606068C11FFD390CD10121A068D8
:101EB000C903884202D04911884204D120680168D0
:101EC0004022914301600120A16A4003814207D171
:101ED00021680A6882430A6021680A6802430A602E
:101EE000012040346077002020770320F8BD20686F
:101EF00081683140B942BCD10020F8BDF8B51D461B
:101F000017460E46044633E0681C31D0002D05D03C
:101F1000FEF746FA0699401AA84229D3206841687C
:101F2000E022914341606068C11FFD390CD101215D
:101F3000A068C903884202D04911884204D12068B0
:101F400001684022914301600120A16A400381425F
:101F500007D121680A6882430A6021680A6802433F
:101F60000A60012040346077002020770320F8BD0C
:101F7000206881683046884304D00020B842C3D12D
:101F80000020F8BD0120F9E77047000010B5FEF70A
:101F9000B3F8044601F076FA002803D00120034983
:101FA000000748602046FEF7ABF810BD00ED00E0EA
:101FB00030B599B034216846FEF703F90024149433
:101FC000159416941C210DA81794FEF7FAF81B20FF
:101FD00000900120019010210790039005900004CB
:101FE0000491022506910A9009950B940C94684679
:101FF000FEF71CFC072014901694012115951794E8
:1020000014A8FEF7DFFA074812940D9028020E90EC
:102010000F9411940DA8FEF743FAFEF77DFB19B05B
:1020200030BD000021000500124801680122114363
:1020300001604168104A1140416001680F4A114037
:1020400001600168012292049143016041683F22CE
:10205000120491434160C16A09090901C162016B1F
:10206000074A11400163416B49084900416300215F
:1020700081607047001002400CB8FF08FFFFF6FEB9
:10208000ACFEF0FF10B50248FFF76EFA10BD00007D
:102090002004002010B50248FFF766FA10BD0000CA
:1020A000B0010020F0B502681D4B0124A4071D4DAE
:1020B000984203D0A04201D0A84203D17026B24377
:1020C0004E683243184E194F98420DD0A0420BD0A3
:1020D000A84209D0164CA04206D0B04204D0B84263
:1020E00002D0144CA04204D103242402A243CC68A1
:1020F00022438024A2434C69224302608A68C26260
:102100000A688262984206D0B04204D0B84202D037
:10211000084A904201D10969016301214161F0BD82
:10212000002C0140000400400040014000440140F8
:10213000002000400048014010B5406A00220146DE
:1021400040314A834A82FFF7CFFA10BD01680A681E
:10215000FF2321339A430A6001688A6852085200BB
:102160008A60202160308172704710B501680A686A
:1021700040239A430A60202269210A54FFF7A1FBF9
:10218000002010BD70B50246403203466033948B88
:102190009D7A0168222D05D0886908221043886144
:1021A000022070BD898C012685683603B54202D1B4
:1021B0000569002D0BD02140446D651C45652170DB
:1021C000518B491E0904090C518307D015E0456D58
:1021D00021402980416D891C4165F1E701680A6849
:1021E000FF242134A2430A6001688A685208520021
:1021F0008A6020219972FFF763FB002070BD69217E
:10220000095C212901D00220704702464032518AE0
:10221000002912D0012381681B03994202D1016970
:10222000002915D0C16C4B1CC36400680978018576
:10223000508A401E50820020704701680A6880233F
:102240009A430A6000680168402211430160F2E786
:10225000C16C03680988C905C90D1985C16C891C41
:10226000C164E5E708B50020694608700748FFF734
:102270003DFA012269460548FFF7D2FA012803D04A
:102280006846007800F048F808BD0000F001002022
:1022900008B50020694608700B48FFF727FA0B487D
:1022A000FFF724FA0A48FFF721FA0A48FFF71EFA57
:1022B000012269460748FFF7B3FA012803D06846B0
:1022C000007800F04DF808BD60020020D002002028
:1022D00040030020B003002030B47446641E25780B
:1022E000641CAB4200D21D46635D5B00E31830BC4A
:1022F000184702E008C8121F08C1002AFAD1704727
:102300007047002001E001C1121F002AFBD1704775
:10231000704700207047000031B500200E4C034686
:102320000246E0606946606900F0B2FF68460078E6
:102330000A2804D0606901F02BF800280BD0064968
:10234000A0680C3100F0EAFFE068002803D001200B
:1023500002490007486038BD7C00002000ED00E025
:1023600031B5002582B0154C2B4665602A4602A97E
:10237000A06800F08DFF01F07FF802460095231D54
:102380000621A06901F0B8F9A06801F001F8002861
:1023900013D0211DE06800F0C1FF0120607000959E
:1023A000231D00220821606901F0A6F96068002859
:1023B00003D001200249000748603EBDAC00002068
:1023C00000ED00E0FDF7FAFFFFF7F2FDFFF72CFB51
:1023D000FFF74EFC00F04CF800F05EF8FEE700005E
:1023E00070B501240F4DE402AC620F4890210170DA
:1023F0003321417081700146642303220B48FEF7AC
:102400006FFE0949642303220A310848FEF7BCFD28
:10241000AC6105480A30817842780802104340BA1E
:1024200070BD0000000400487C590020E800002036
:1024300070B501250B4CED02A5620B490520087013
:10244000642301220948FEF74BFE07496423012259
:102450000A310648FEF798FDA56103480A30007866
:1024600070BD0000000400487C590020E8000020F6
:1024700010B5FFF715FCFFF7DBFF002807D1FFF7CA
:10248000AFFF0349884202D10249FF20487010BDC6
:1024900014EF00008659002010B500F0F5FC002074
:1024A00010BD0000F8B5134C0F46E66805462068DD
:1024B000001D00F0A7FB681C07D1002F05D0216884
:1024C0000D48091D00F0D7FBF8BD2068751945605F
:1024D0002168B54204D2206C091D00F0B4FBF8BDA0
:1024E000E06B091D00F0AFFBA06A8542F7D2A56240
:1024F000F8BD00000800002040050020F8B50546A2
:1025000000F0C6FB2A4CA068401CA0602068294F40
:10251000002803D06069002827D02CE02560A0683F
:10252000012828D1002614207043C01900F07DFB3B
:10253000761C042EF7D31F48503000F076FB1D4860
:10254000643000F072FB1B48783000F06EFB1948D5
:102550008C3000F06AFB1748A03000F066FB15488D
:102560005030E0631430206405E02068E96AC06AF6
:10257000884200D82560606A401C60626864E86A2E
:102580002169884200D9206114214843C019291DBE
:1025900000F071FB00F088FB6069002806D020681D
:1025A000E96AC06A884201D200F0C0FBF8BD0000B1
:1025B00008000020A004002010B500F069FB0E4CBC
:1025C0002068002815D10D4800F02FFB0B4814306F
:1025D00000F02BFB0948E0601430206100220C2140
:1025E0000A2000F0D5FC2060002802D004A100F0F1
:1025F000A9FB00F059FB10BD4C0000205405002041
:10260000546D72510000000070B5114E114C18E06D
:1026100000F066FC3068002817D000F0F7FF00F0EB
:1026200037FBF068C568281D00F0ECFAA068401E72
:10263000A0606068401E606000F036FB284600F035
:1026400056F860680028E3D170BD00F0DFFFF8E7BE
:102650002C0500200800002010B5026C0C46002A52
:102660000CD0C1688B18C36041688B4201D21946F7
:1026700001E00168C1602046FDF78AFD10BDF8B594
:10268000856B174604460026026C002A11D0002FE5
:1026900019D0E068FDF77CFDE168206C091AE16063
:1026A0002268914202D26168081AE060022F17D0B6
:1026B00019E02068002816D1606800F041FF064646
:1026C000002060600FE0A068FDF762FD216CA0684B
:1026D0004018A0606168884205D32068A06002E0CD
:1026E000002D00D06D1E6D1CA5633046F8BD10B5E1
:1026F0000446006B00F0E6FA204600F0E3FA10BD55
:1027000015210E488902420705D0C01DC0080B4A9A
:10271000C000821A891A0A4A0023411809C20839DE
:10272000C908C900183A11604B600B600B1A0AC047
:1027300093600120C0075360D06070477C05002083
:1027400070000020054CFFF75FFF2068012801D9C9
:1027500000F0ECFA00F068FAF5E70000A0040020B1
:10276000FFB581B097000C9C0D460A9EA522394604
:10277000206BFDF71FFD206B3F1FC019C708FF002E
:10278000780701D072B6FEE72218295C2032117555
:10279000295C002902D0401C1028F5D300254320D5
:1027A0000555042E00D30326E662E664201D256548
:1027B00000F046FA2046183000F042FA2461042066
:1027C000801B6462A0616565A565E56560200555AF
:1027D0003846049A019900F005FA20600B98002809
:1027E00000D0046005B0F0BD30B5114900E01146DD
:1027F0000A688242FBD34B685C18844203D140686C
:1028000018184860084643681C18944209D1084CBF
:10281000103C2468A24209D052689A1842600A68A3
:1028200012680260814200D0086030BD0460F9E7A0
:102830007000002070B5002441600B4D0061914292
:1028400006D8D11A8269914206D2011D286907E093
:102850009A4203D2994201D3012403E0011DE868A2
:1028600000F0F1F9204670BD4C00002010B5044680
:1028700000F00EFAA06B002804D0002400F014FA37
:10288000204610BD0124F9E730B587B0274D43E05D
:102890000498002840DB069C6069002802D0201DB7
:1028A00000F0B0F902A800F0A1F802460498030075
:1028B000FFF712FD0A06060632232F0606322332E0
:1028C0000598A169034641182046FFF7B3FF002889
:1028D00022D0616A20468847E06901281CD1002087
:1028E00000900598A169002342181946204600F07F
:1028F00003FF002810D172B6FEE70598A0610028FA
:1029000005D0811813462046FFF794FF04E072B605
:10291000FEE7204600F0D6F900231A4604A92868ED
:1029200000F058FB0028B3D107B030BD4C000020A8
:10293000FEB50F46054600F0D3FA01A800F056F8A0
:1029400004460198002802D000F060FEFEBD1E4E35
:10295000002F10D030690068002833D00027291BD1
:102960003A46306800F000FA00F050FE0028EDD141
:1029700000F0DCF9FEBDA542F1D800F047FEF0689A
:102980002746C068C468201D00F03CF9E0690128B2
:1029900012D1A0692B4641193A462046FFF74AFF5B
:1029A000002809D000200346014600902A46204610
:1029B00000F0A2FE002803D0616A20468847FEBDD1
:1029C00072B6FEE70127CAE74C0000200648C16B3B
:1029D0000968002905D0C16BC968C9684968816266
:1029E00070470021C943FAE70800002070B505468A
:1029F00000F03CFD064E0446B068844203D200F06D
:102A000009F8012000E0002028602046B46070BD75
:102A10004C000020F8B5164D20E0C068C468066878
:102A2000201D00F0EFF8616A20468847E069012820
:102A300014D1A0698019B04206D924616060211DBB
:102A4000E86800F000F909E0002003460146009024
:102A50003246204600F050FE002807D0E8680168A2
:102A60000029DAD12969E9602861F8BD72B6FEE76C
:102A70004C00002003480068401C72B600D0FEE7FE
:102A8000FEE7000078000020074CE068016800299C
:102A900007D0C06800210068FFF74AFFFFF7F4FE87
:102AA000F3E701210020F7E74C000020F8B50446C9
:102AB00000F0EEF8254640350526AE572746243768
:102AC0000BE0606A00280AD0384600F06DFD00284F
:102AD00001D000F06BF9761E76B2002EF1DC0027F3
:102AE000FF436F7100F0E0F800F0D2F80426AE5713
:102AF0002046103000900BE0206900280AD0009892
:102B000000F052FD002801D000F050F9761E76B298
:102B1000002EF1DC2F7100F0C7F8F8BDF8B50546BE
:102B2000002700F0DDF9284E3068002801D1FFF7BA
:102B3000E7FDF06805423FD1002D3DD0083568071C
:102B400008D06807400F0821081A4519680701D006
:102B500072B6FEE7002D2FD0706885422CD81A4837
:102B6000103001460C6801E020460C466168A9421D
:102B700002D221680029F7D131688C421CD0076845
:102B80002168016060680837411B102908D9601965
:102B9000420701D072B6FEE741606560FFF724FE90
:102BA00061687068401A7060B268904200D2B0608C
:102BB000F0680143002003C400F028FD780701D02D
:102BC00072B6FEE73846F8BD600000200449086888
:102BD000002803D00868026D521C0265086870471F
:102BE0000800002010B50124031F24061C601B1FD1
:102BF0001960191F024B0B60143940380A6010BD70
:102C0000752A00084368826801699A60836842688F
:102C10005A604A68824201D182684A600022026199
:102C20000868401E0860704770470146083100225E
:102C30004160D243C1608260016100210160704740
:102C400000210161704730B50B685A1C02D0024662
:102C5000083202E0026904E02246546825689D4279
:102C6000FAD953684B6099608A60516008610168C5
:102C7000491C016030BD42684A6093688B6093686C
:102C80005960916008610168491C0160704700004B
:102C900072B604480168491C0160BFF34F8FBFF34F
:102CA0006F8F70477800002005490868002804D01D
:102CB000401E086000D162B6704772B6FEE70000A1
:102CC0007800002070B500281AD004460D4D083C4D
:102CD0006068E968084201D172B6FEE72268002AFE
:102CE00001D072B6FEE78843606000F0F9F86068D2
:102CF0006968401868602046FFF776FD00F086FCA2
:102D000070BD00006000002010B506487D21C9009C
:102D10000068FDF727FA0449401E48610720086152
:102D200010BD00000400002000E000E00120044984
:102D300000074860BFF34F8FBFF36F8F70470000ED
:102D400000ED00E010B5074B0022D4001C59002C08
:102D500003D0521C082AF8D310BDD2009950D118C4
:102D6000486010BD6004002070B515460E4604464C
:102D7000FFF78EFF20464030042282560021521C6D
:102D800000D1017105228256521C00D14171FFF71A
:102D90008BFFA06B002805D120462A4631462430FF
:102DA00000F01CF82046FFF781FE70BD01490120AC
:102DB000C86170470800002010B50C46002809D0F3
:102DC000054909681831FFF73EFF01212046FFF74A
:102DD00069FB10BD72B6FEE70800002070B514460E
:102DE0000D4600280DD0084909681831FFF743FF48
:102DF000002C01D00025ED4321462846FFF752FB69
:102E000070BD72B6FEE700000800002070B5040037
:102E100025D0154DE06A2968C96A88421FD2A06989
:102E2000002804DB28680421C06A081AA061E06A4F
:102E300014220E4E504361698019814210D1201D29
:102E4000FFF7E0FE2868C06AE0622969884200D97D
:102E50002861142148438019211DFFF70CFF70BD24
:102E60002868C06AE06270BD08000020A00400204D
:102E7000002805D003490A6A0260C96841607047AA
:102E800072B6FEE7080000201CB51148002401902E
:102E9000234640220FA10094104800F0AFFA012809
:102EA00003D100F009FC012803D0401C0ED172B6FA
:102EB000FEE772B600210648C9432C388162012121
:102EC0004161C460FFF724FA00F04AF81CBD00001D
:102ED0003400002049444C4500000000452700080C
:102EE0000248016B491C0163704700000800002084
:102EF00010B5194C206B002802D00120E06110BDF4
:102F00000020E061FFF705FAA063626B904204D9EC
:102F10002168821A8B6D9A188A65606320690F494F
:102F200002E0002815D0401E142242438A58002A8D
:102F3000F7D01422424351184A680B4652680833AE
:102F40004A609A4201D152684A60D168216020618A
:102F500010BD72B6FEE7000008000020A0040020AB
:102F600010B50948016AFF22120411430162016A87
:102F7000120211430162FFF7C7FE044900200860F6
:102F8000FDF7A6F8002010BD00ED00E0780000205D
:102F9000F8B517460E46050016D0002E16D0704321
:102FA0005030FFF7BBFD04000CD020465030002EFF
:102FB0000ED02060266420460121E56300F0A6F8CB
:102FC0004C2007552046F8BD72B6FEE70020E7E723
:102FD0002460EFE7FFB5002583B0040003D0049818
:102FE000002802D006E072B6FEE7206C002801D06F
:102FF00072B6FEE700F02AFA0026002804D10598F0
:10300000002801D072B6FEE7FFF742FEA76B002F43
:1030100026D0E56820460499FFF71EFB0698002895
:1030200010D0E560606A002807D02046243000F008
:10303000BBFA002801D0FFF779FEFFF735FE01202B
:1030400007B0F0BD7F1EA7632068002802D1FFF7FC
:10305000BDFD606020690028EFD020461030E6E713
:103060000598002802D0002D03D006E0FFF71CFED3
:1030700027E06846FFF7FCFE0125FFF715FEFFF786
:103080002FFFFFF705FE2046403004214156491C22
:1030900000D1067105214156491C00D14671FFF748
:1030A00003FE05A9684600F07FF9002820460AD0F3
:1030B000FFF7FCFC00F0AAFA2046FFF7D7FB002838
:1030C000A2D00020BCE7FFF7D1FB002818D0206871
:1030D000002806D1FFF7DCFD6068FFF797FEFFF7D9
:1030E000E3FD204624300599FFF766FE2046FFF7F2
:1030F000DDFC00F08BFA002886D1FFF717FE83E78E
:103100002046FFF7D3FC00F081FA7DE770B50D464D
:10311000040025D0FFF7BCFD216CE06B484321681B
:10312000411861600021A1632168A160E06B216CFE
:10313000401E484321684118E1600021C9432046F0
:103140004030017141713038002D0BD0FFF76DFD1B
:1031500020462430FFF769FDFFF7A6FD012070BD72
:1031600072B6FEE721690029F6D000F01DFA0028AA
:10317000F2D0FFF7DBFDEFE7FFB5002683B01D4679
:10318000040003D00498002802D006E072B6FEE7DF
:10319000206C002801D072B6FEE7022D04D1E06B4E
:1031A000012801D072B6FEE700F050F90027002890
:1031B00004D10598002801D072B6FEE7FFF768FD3C
:1031C000A06BE16B884207D3022D05D0059800283B
:1031D00017D0002E18D01BE02A4620460499FFF78E
:1031E0004EFA616A002903D02046243000F0DCF951
:1031F000002801D0FFF79AFDFFF756FD012007B028
:10320000F0BDFFF751FD22E06846FFF731FE0126D1
:10321000FFF74AFDFFF764FEFFF73AFD2046403016
:1032200004214156491C00D1077105214156491C12
:1032300000D14771FFF738FD05A9684600F0B4F8E2
:10324000002806D02046FFF731FC00F0DFF900200F
:10325000D5E7FFF71DFDA06BE16B884210D1FFF7AA
:1032600023FD204610300599FFF7A6FD2046FFF705
:103270001DFC00F0CBF90028A0D1FFF757FD9DE71A
:10328000FFF712FD2046FFF711FC00F0BFF995E7AC
:10329000FFB581B01E46040003D00298002802D07A
:1032A00006E072B6FEE7206C002801D072B6FEE799
:1032B000022E04D1E06B012801D072B6FEE7FCF7C4
:1032C0001BFF0090A06BE16B884208D3022E06D052
:1032D00000240098FCF714FF204605B0F0BD2046FE
:1032E0004030052545570746324620460299FFF7EC
:1032F000C6F9681C03D06D1C7D710124E9E7606A82
:103300000028FAD02046243000F04EF90028F4D0EE
:1033100003980028F1D001210160EEE770B50D4659
:10332000040004D0206C002803D072B6FEE772B609
:10333000FEE72068002804D16068002801D072B63A
:10334000FEE7FCF7D9FEA26B0646E06B904219D966
:103350002146403105200856521CA263421C03D06E
:10336000401C487101240EE0606A0028FAD0204613
:10337000243000F019F90028F4D0002DF2D00120FB
:103380002860EFE700243046FCF7BAFE204670BD07
:10339000002805D0816BC06B814203D101207047AA
:1033A00072B6FEE70020704770B50D4604001AD0D3
:1033B000002D1AD0FFF76CFC0F4AD1682868431C17
:1033C0000FD02368126A934202D062688A420ED9F3
:1033D0006268891A81420AD2401A28602046FFF7A3
:1033E00047FD002404E072B6FEE772B6FEE7012452
:1033F000FFF75AFC204670BD08000020FFB585B0DD
:10340000164690000F9FFFF789FB05001AD0642035
:10341000FFF784FB040012D0256300210E9803916E
:103420000197009002943246089B06990598FFF791
:1034300097F92046FFF762F8012009B0F0BD284651
:10344000FFF740FC0020C043F7E700000648416951
:10345000002904D0006B002803D000207047012011
:103460007047022070470000080000200148C06833
:1034700070470000080000200148C0687047000045
:1034800008000020F8B52C4C0027206B002808D03D
:10349000A069401CA061E069002800D001273846DF
:1034A000F8BDE668761CE6600ED1E06B0068002887
:1034B00001D072B6FEE7E06B216CE1632064206A04
:1034C000401C2062FFF782FAA06A86420AD3E06BB2
:1034D0000068002810D0E06BC068C5686868864244
:1034E0000DD2A06220681421C06A484313490858CD
:1034F0000128D0D90127CEE70020C043F1E7281DDD
:10350000FFF780FBA86A002803D028461830FFF791
:1035100079FBE86A2169884200D920611421484377
:1035200006494018291DFFF7A6FBE86A2168C96A09
:103530008842CCD30127CAE708000020A00400205D
:1035400070B500210446002828D0154D2868844213
:1035500001D072B6FEE7206D002808D0401E20651D
:10356000E36CE26A9A4219D0002802D016E072B6E3
:10357000FEE7201DFFF746FBE06C0421E062081A1D
:10358000A061E06A2969884200D928611421484372
:1035900004494018211DFFF76EFB0121084670BD4C
:1035A00008000020A004002070B5C068C468002C8A
:1035B0000BD0204618300646FFF724FB114D286B30
:1035C000002804D0314610480FE072B6FEE7201DF7
:1035D000FFF718FBE06A2969884200D928611421A5
:1035E0004843094978394018211DFFF744FBE06A38
:1035F0002968C96A884202D90120E86170BD0020AB
:1036000070BD00000800002018050020F8B5284C07
:103610000025206B2E46002808D0FFF739FB206BD1
:10362000401E2063206B002802D03DE072B6FEE70A
:10363000A168204F00291DD136E0F868C5682846EA
:103640001830FFF7DFFA281DFFF7DCFAE86A216976
:10365000884200D92061142148431649783940181E
:10366000291DFFF708FBE86A2168C96A884201D36F
:103670000120E06138680028DFD1002D01D0FFF77C
:10368000A5F9A569002D09D00127FFF7FBFE002849
:1036900000D0E7616D1EF8D10020A061E06900282C
:1036A00002D00126FFF742FBFFF7FEFA3046F8BDD5
:1036B00008000020180500201CB5FEF77DFF0A4811
:1036C000006800280CD008490220091D01910090D3
:1036D0000023802205A10748FFF790FE002801D1B2
:1036E00072B6FEE71CBD00004C000020546D722035
:1036F00053766300892A0008FEB51D460346002064
:10370000089E002B12D00F4C2768002F0DD0684662
:103710000EC006290FDAFFF799FE022808D0002311
:103720001A4669462068FFF727FDFEBD72B6FEE720
:1037300000233246F5E700232A4669463846FFF75C
:10374000A7FDFEBD4C0000200000000000000000AE
:103750000102030406070809000000000102030437
:103760008037000800000020C8000000F222000896
:1037700048380008C8000020C85C00000223000888
:103780000000000000127A000000000000000000AD
:103790000000000000000000000000000000000029
:1037A0000000000000000000000000000000000019
:1037B0000000000000000000000000000000000009
:1037C00000000000000000000000000000000000F9
:1037D00000000000000000000000000000000000E9
:1037E00000000000000000000000000000000000D9
:1037F0000000000000000000AAAAAAAA0000000021
:1038000000000000000000000000000000000000B8
:1038100000000000524D430000000000FF010000C6
:103820004747410001000000E001000000000000E7
:103830000000000000000000000000000000000088
:08384000000000000000000080
:04000005080000BD32
:00000001FF
